:107C00000C94343E0C94493E0C94493E0C94493EED
:107C10000C94493E0C94493E0C94493E0C94493EC8
:107C20000C94493E0C94493E0C94493E0C94493EB8
:107C30000C94493E0C94493E0C94493E0C94493EA8
:107C40000C94493E0C94493E0C94493E0C94493E98
:107C50000C94493E0C94493E0C94493E0C94493E88
:107C60000C94493E0C94493E11241FBECFEFD8E03E
:107C7000DEBFCDBF11E0A0E0B1E0E4EAFCE702C066
:107C800005900D92A23AB107D9F70E944B3E0C9491
:107C9000503E0C94003E0C94000090E080E008956B
:047CA000F894FFCF86
:107CA4000C9434000C943E000C943E000C943E0062
:107CB4000C943E000C943E000C943E000C943E0048
:107CC4000C943E000C943E000C943E000C943E0038
:107CD4000C943E000C943E000C943E000C943E0028
:107CE4000C943E000C943E000C943E000C943E0018
:107CF4000C943E000C943E000C943E000C943E0008
:107D04000C943E000C943E0011241FBECFEFD8E02B
:107D1400DEBFCDBF0E9440000C944F000C940000C5
:107D2400259A90E285B1892785B92FEF31EE84E059
:107D3400215030408040E1F700C00000F3CFF894B8
:027D4400FFCF6F
:0400000300007C007D
:00000001FF
